{
  "_format": "hh-sol-artifact-1",
  "contractName": "FaceRecognition",
  "sourceName": "contracts/store.sol",
  "abi": [
    {
      "anonymous": false,
      "inputs": [
        {
          "indexed": true,
          "internalType": "address",
          "name": "userAddress",
          "type": "address"
        },
        {
          "indexed": false,
          "internalType": "bytes32",
          "name": "userId",
          "type": "bytes32"
        }
      ],
      "name": "UserRegistered",
      "type": "event"
    },
    {
      "inputs": [
        {
          "internalType": "int256[]",
          "name": "_inputFaceEmbedding",
          "type": "int256[]"
        }
      ],
      "name": "matchFace",
      "outputs": [
        {
          "internalType": "bytes32",
          "name": "",
          "type": "bytes32"
        }
      ],
      "stateMutability": "view",
      "type": "function"
    },
    {
      "inputs": [
        {
          "internalType": "bytes32",
          "name": "_userId",
          "type": "bytes32"
        },
        {
          "internalType": "int256[]",
          "name": "_faceEmbedding",
          "type": "int256[]"
        }
      ],
      "name": "registerUser",
      "outputs": [],
      "stateMutability": "nonpayable",
      "type": "function"
    },
    {
      "inputs": [
        {
          "internalType": "address",
          "name": "",
          "type": "address"
        }
      ],
      "name": "users",
      "outputs": [
        {
          "internalType": "bytes32",
          "name": "userId",
          "type": "bytes32"
        },
        {
          "components": [
            {
              "internalType": "int256[]",
              "name": "embedding",
              "type": "int256[]"
            }
          ],
          "internalType": "struct FaceRecognition.FaceEmbedding",
          "name": "faceEmbedding",
          "type": "tuple"
        }
      ],
      "stateMutability": "view",
      "type": "function"
    }
  ],
  "bytecode": "0x608060405234801561001057600080fd5b50610ceb806100206000396000f3fe608060405234801561001057600080fd5b50600436106100415760003560e01c806326315b5a14610046578063a87430ba14610062578063f4eae36614610093575b600080fd5b610060600480360381019061005b9190610676565b6100c3565b005b61007c6004803603810190610077919061060c565b61021a565b60405161008a929190610823565b60405180910390f35b6100ad60048036038101906100a89190610635565b6102a0565b6040516100ba9190610808565b60405180910390f35b6000801b6000803373ffffffffffffffffffffffffffffffffffffffff1673ffffffffffffffffffffffffffffffffffffffff1681526020019081526020016000206000015414610149576040517f08c379a000000000000000000000000000000000000000000000000000000000815260040161014090610873565b60405180910390fd5b60008060003373ffffffffffffffffffffffffffffffffffffffff1673ffffffffffffffffffffffffffffffffffffffff16815260200190815260200160002090508281600001819055506040518060200160405280838152508160010160008201518160000190805190602001906101c39291906104cd565b509050503373ffffffffffffffffffffffffffffffffffffffff167f4c5d15f5779ae1ecd7d55bd3283d898e29c35743d172bd7b83a16e17bc0afe2a8460405161020d9190610808565b60405180910390a2505050565b6000602052806000526040600020600091509050806000015490806001016040518060200160405290816000820180548060200260200160405190810160405280929190818152602001828054801561029257602002820191906000526020600020905b81548152602001906001019080831161027e575b505050505081525050905082565b6000806000801b905060007f7fffffffffffffffffffffffffffffffffffffffffffffffffffffffffffffff905060005b600a8110156103a75760008060008373ffffffffffffffffffffffffffffffffffffffff1673ffffffffffffffffffffffffffffffffffffffff1681526020019081526020016000209050600061037d8260010160000180548060200260200160405190810160405280929190818152602001828054801561037257602002820191906000526020600020905b81548152602001906001019080831161035e575b5050505050886103b2565b90508381121561039257809350816000015494505b5050808061039f90610bc9565b9150506102d1565b508192505050919050565b600081518351146103f8576040517f08c379a00000000000000000000000000000000000000000000000000000000081526004016103ef90610853565b60405180910390fd5b6000805b84518110156104c2576000848281518110610440577f4e487b7100000000000000000000000000000000000000000000000000000000600052603260045260246000fd5b6020026020010151868381518110610481577f4e487b7100000000000000000000000000000000000000000000000000000000600052603260045260246000fd5b60200260200101516104939190610ae5565b905080816104a191906109ce565b836104ac919061093a565b92505080806104ba90610bc9565b9150506103fc565b508091505092915050565b828054828255906000526020600020908101928215610509579160200282015b828111156105085782518255916020019190600101906104ed565b5b509050610516919061051a565b5090565b5b8082111561053357600081600090555060010161051b565b5090565b600061054a610545846108c4565b610893565b9050808382526020820190508285602086028201111561056957600080fd5b60005b85811015610599578161057f88826105f7565b84526020840193506020830192505060018101905061056c565b5050509392505050565b6000813590506105b281610c70565b92915050565b600082601f8301126105c957600080fd5b81356105d9848260208601610537565b91505092915050565b6000813590506105f181610c87565b92915050565b60008135905061060681610c9e565b92915050565b60006020828403121561061e57600080fd5b600061062c848285016105a3565b91505092915050565b60006020828403121561064757600080fd5b600082013567ffffffffffffffff81111561066157600080fd5b61066d848285016105b8565b91505092915050565b6000806040838503121561068957600080fd5b6000610697858286016105e2565b925050602083013567ffffffffffffffff8111156106b457600080fd5b6106c0858286016105b8565b9150509250929050565b60006106d6838361074f565b60208301905092915050565b60006106ed82610900565b6106f78185610918565b9350610702836108f0565b8060005b8381101561073357815161071a88826106ca565b97506107258361090b565b925050600181019050610706565b5085935050505092915050565b61074981610b8b565b82525050565b61075881610b95565b82525050565b600061076b601d83610929565b91507f456d62656464696e672064696d656e73696f6e73206d69736d617463680000006000830152602082019050919050565b60006107ab601783610929565b91507f5573657220616c726561647920726567697374657265640000000000000000006000830152602082019050919050565b600060208301600083015184820360008601526107fb82826106e2565b9150508091505092915050565b600060208201905061081d6000830184610740565b92915050565b60006040820190506108386000830185610740565b818103602083015261084a81846107de565b90509392505050565b6000602082019050818103600083015261086c8161075e565b9050919050565b6000602082019050818103600083015261088c8161079e565b9050919050565b6000604051905081810181811067ffffffffffffffff821117156108ba576108b9610c41565b5b8060405250919050565b600067ffffffffffffffff8211156108df576108de610c41565b5b602082029050602081019050919050565b6000819050602082019050919050565b600081519050919050565b6000602082019050919050565b600082825260208201905092915050565b600082825260208201905092915050565b600061094582610b95565b915061095083610b95565b9250817f7fffffffffffffffffffffffffffffffffffffffffffffffffffffffffffffff0383136000831215161561098b5761098a610c12565b5b817f80000000000000000000000000000000000000000000000000000000000000000383126000831216156109c3576109c2610c12565b5b828201905092915050565b60006109d982610b95565b91506109e483610b95565b9250827f7fffffffffffffffffffffffffffffffffffffffffffffffffffffffffffffff0482116000841360008413161615610a2357610a22610c12565b5b817f80000000000000000000000000000000000000000000000000000000000000000583126000841260008413161615610a6057610a5f610c12565b5b827f80000000000000000000000000000000000000000000000000000000000000000582126000841360008412161615610a9d57610a9c610c12565b5b827f7fffffffffffffffffffffffffffffffffffffffffffffffffffffffffffffff0582126000841260008412161615610ada57610ad9610c12565b5b828202905092915050565b6000610af082610b95565b9150610afb83610b95565b9250827f800000000000000000000000000000000000000000000000000000000000000001821260008412151615610b3657610b35610c12565b5b827f7fffffffffffffffffffffffffffffffffffffffffffffffffffffffffffffff018213600084121615610b6e57610b6d610c12565b5b828203905092915050565b6000610b8482610b9f565b9050919050565b6000819050919050565b6000819050919050565b600073ffffffffffffffffffffffffffffffffffffffff82169050919050565b6000819050919050565b6000610bd482610bbf565b91507fffffffffffffffffffffffffffffffffffffffffffffffffffffffffffffffff821415610c0757610c06610c12565b5b600182019050919050565b7f4e487b7100000000000000000000000000000000000000000000000000000000600052601160045260246000fd5b7f4e487b7100000000000000000000000000000000000000000000000000000000600052604160045260246000fd5b610c7981610b79565b8114610c8457600080fd5b50565b610c9081610b8b565b8114610c9b57600080fd5b50565b610ca781610b95565b8114610cb257600080fd5b5056fea264697066735822122089c99dddd9e5976cfb628da2ca5ad898fcb3a1b14e15e7fd206542d059f317d764736f6c63430008000033",
  "linkReferences": {},
  "deployedLinkReferences": {}
}