{
  "_format": "hh-sol-artifact-1",
  "contractName": "FaceRecognition",
  "sourceName": "contracts/store.sol",
  "abi": [
    {
      "anonymous": false,
      "inputs": [
        {
          "indexed": true,
          "internalType": "address",
          "name": "userAddress",
          "type": "address"
        },
        {
          "indexed": false,
          "internalType": "bytes32",
          "name": "userId",
          "type": "bytes32"
        }
      ],
      "name": "UserRegistered",
      "type": "event"
    },
    {
      "inputs": [
        {
          "internalType": "int256[]",
          "name": "_inputFaceEmbedding",
          "type": "int256[]"
        }
      ],
      "name": "matchFace",
      "outputs": [
        {
          "internalType": "bytes32",
          "name": "",
          "type": "bytes32"
        }
      ],
      "stateMutability": "view",
      "type": "function"
    },
    {
      "inputs": [
        {
          "internalType": "bytes32",
          "name": "_userId",
          "type": "bytes32"
        },
        {
          "internalType": "int256[]",
          "name": "_faceEmbedding",
          "type": "int256[]"
        }
      ],
      "name": "registerUser",
      "outputs": [],
      "stateMutability": "nonpayable",
      "type": "function"
    },
    {
      "inputs": [
        {
          "internalType": "address",
          "name": "",
          "type": "address"
        }
      ],
      "name": "users",
      "outputs": [
        {
          "internalType": "bytes32",
          "name": "userId",
          "type": "bytes32"
        }
      ],
      "stateMutability": "view",
      "type": "function"
    }
  ],
  "bytecode": "0x608060405234801561001057600080fd5b50610b4d806100206000396000f3fe608060405234801561001057600080fd5b50600436106100415760003560e01c806326315b5a14610046578063a87430ba14610062578063f4eae36614610092575b600080fd5b610060600480360381019061005b91906105f0565b6100c2565b005b61007c60048036038101906100779190610586565b6101ff565b60405161008991906106d3565b60405180910390f35b6100ac60048036038101906100a791906105af565b61021d565b6040516100b991906106d3565b60405180910390f35b6000801b6000803373ffffffffffffffffffffffffffffffffffffffff1673ffffffffffffffffffffffffffffffffffffffff1681526020019081526020016000206000015414610148576040517f08c379a000000000000000000000000000000000000000000000000000000000815260040161013f9061070e565b60405180910390fd5b60008060003373ffffffffffffffffffffffffffffffffffffffff1673ffffffffffffffffffffffffffffffffffffffff1681526020019081526020016000209050828160000181905550818160010190805190602001906101ab929190610447565b503373ffffffffffffffffffffffffffffffffffffffff167f4c5d15f5779ae1ecd7d55bd3283d898e29c35743d172bd7b83a16e17bc0afe2a846040516101f291906106d3565b60405180910390a2505050565b60006020528060005260406000206000915090508060000154905081565b6000806000801b905060007f7fffffffffffffffffffffffffffffffffffffffffffffffffffffffffffffff905060005b600a8110156103215760008060008373ffffffffffffffffffffffffffffffffffffffff1673ffffffffffffffffffffffffffffffffffffffff168152602001908152602001600020905060006102f7826001018054806020026020016040519081016040528092919081815260200182805480156102ec57602002820191906000526020600020905b8154815260200190600101908083116102d8575b50505050508861032c565b90508381121561030c57809350816000015494505b5050808061031990610a2b565b91505061024e565b508192505050919050565b60008151835114610372576040517f08c379a0000000000000000000000000000000000000000000000000000000008152600401610369906106ee565b60405180910390fd5b6000805b845181101561043c5760008482815181106103ba577f4e487b7100000000000000000000000000000000000000000000000000000000600052603260045260246000fd5b60200260200101518683815181106103fb577f4e487b7100000000000000000000000000000000000000000000000000000000600052603260045260246000fd5b602002602001015161040d9190610947565b9050808161041b9190610830565b83610426919061079c565b925050808061043490610a2b565b915050610376565b508091505092915050565b828054828255906000526020600020908101928215610483579160200282015b82811115610482578251825591602001919060010190610467565b5b5090506104909190610494565b5090565b5b808211156104ad576000816000905550600101610495565b5090565b60006104c46104bf8461075f565b61072e565b905080838252602082019050828560208602820111156104e357600080fd5b60005b8581101561051357816104f98882610571565b8452602084019350602083019250506001810190506104e6565b5050509392505050565b60008135905061052c81610ad2565b92915050565b600082601f83011261054357600080fd5b81356105538482602086016104b1565b91505092915050565b60008135905061056b81610ae9565b92915050565b60008135905061058081610b00565b92915050565b60006020828403121561059857600080fd5b60006105a68482850161051d565b91505092915050565b6000602082840312156105c157600080fd5b600082013567ffffffffffffffff8111156105db57600080fd5b6105e784828501610532565b91505092915050565b6000806040838503121561060357600080fd5b60006106118582860161055c565b925050602083013567ffffffffffffffff81111561062e57600080fd5b61063a85828601610532565b9150509250929050565b61064d816109ed565b82525050565b6000610660601d8361078b565b91507f456d62656464696e672064696d656e73696f6e73206d69736d617463680000006000830152602082019050919050565b60006106a060178361078b565b91507f5573657220616c726561647920726567697374657265640000000000000000006000830152602082019050919050565b60006020820190506106e86000830184610644565b92915050565b6000602082019050818103600083015261070781610653565b9050919050565b6000602082019050818103600083015261072781610693565b9050919050565b6000604051905081810181811067ffffffffffffffff8211171561075557610754610aa3565b5b8060405250919050565b600067ffffffffffffffff82111561077a57610779610aa3565b5b602082029050602081019050919050565b600082825260208201905092915050565b60006107a7826109f7565b91506107b2836109f7565b9250817f7fffffffffffffffffffffffffffffffffffffffffffffffffffffffffffffff038313600083121516156107ed576107ec610a74565b5b817f800000000000000000000000000000000000000000000000000000000000000003831260008312161561082557610824610a74565b5b828201905092915050565b600061083b826109f7565b9150610846836109f7565b9250827f7fffffffffffffffffffffffffffffffffffffffffffffffffffffffffffffff048211600084136000841316161561088557610884610a74565b5b817f800000000000000000000000000000000000000000000000000000000000000005831260008412600084131616156108c2576108c1610a74565b5b827f800000000000000000000000000000000000000000000000000000000000000005821260008413600084121616156108ff576108fe610a74565b5b827f7fffffffffffffffffffffffffffffffffffffffffffffffffffffffffffffff058212600084126000841216161561093c5761093b610a74565b5b828202905092915050565b6000610952826109f7565b915061095d836109f7565b9250827f80000000000000000000000000000000000000000000000000000000000000000182126000841215161561099857610997610a74565b5b827f7fffffffffffffffffffffffffffffffffffffffffffffffffffffffffffffff0182136000841216156109d0576109cf610a74565b5b828203905092915050565b60006109e682610a01565b9050919050565b6000819050919050565b6000819050919050565b600073ffffffffffffffffffffffffffffffffffffffff82169050919050565b6000819050919050565b6000610a3682610a21565b91507fffffffffffffffffffffffffffffffffffffffffffffffffffffffffffffffff821415610a6957610a68610a74565b5b600182019050919050565b7f4e487b7100000000000000000000000000000000000000000000000000000000600052601160045260246000fd5b7f4e487b7100000000000000000000000000000000000000000000000000000000600052604160045260246000fd5b610adb816109db565b8114610ae657600080fd5b50565b610af2816109ed565b8114610afd57600080fd5b50565b610b09816109f7565b8114610b1457600080fd5b5056fea2646970667358221220c93b7943811ee862778bece3a9c1a6ed8121f84102b2d265242e704ec5b2391364736f6c63430008000033",
  "linkReferences": {},
  "deployedLinkReferences": {}
}